{
  "contractName": "NeverPayICO",
  "abi": [
    {
      "inputs": [
        {
          "internalType": "address payable",
          "name": "_beneficiary",
          "type": "address"
        }
      ],
      "stateMutability": "nonpayable",
      "type": "constructor"
    },
    {
      "inputs": [],
      "name": "beneficiary",
      "outputs": [
        {
          "internalType": "address payable",
          "name": "",
          "type": "address"
        }
      ],
      "stateMutability": "view",
      "type": "function"
    },
    {
      "inputs": [],
      "name": "bidEnd",
      "outputs": [
        {
          "internalType": "uint256",
          "name": "",
          "type": "uint256"
        }
      ],
      "stateMutability": "view",
      "type": "function"
    },
    {
      "inputs": [
        {
          "internalType": "address",
          "name": "",
          "type": "address"
        },
        {
          "internalType": "bytes32",
          "name": "",
          "type": "bytes32"
        }
      ],
      "name": "bids",
      "outputs": [
        {
          "internalType": "bool",
          "name": "",
          "type": "bool"
        }
      ],
      "stateMutability": "view",
      "type": "function"
    },
    {
      "inputs": [],
      "name": "revealEnd",
      "outputs": [
        {
          "internalType": "uint256",
          "name": "",
          "type": "uint256"
        }
      ],
      "stateMutability": "view",
      "type": "function"
    },
    {
      "inputs": [],
      "name": "totalICOETH",
      "outputs": [
        {
          "internalType": "uint256",
          "name": "",
          "type": "uint256"
        }
      ],
      "stateMutability": "view",
      "type": "function"
    },
    {
      "inputs": [
        {
          "internalType": "bytes32",
          "name": "_bindedBid",
          "type": "bytes32"
        }
      ],
      "name": "bid",
      "outputs": [],
      "stateMutability": "nonpayable",
      "type": "function"
    },
    {
      "inputs": [
        {
          "internalType": "bytes32",
          "name": "_bindedBid",
          "type": "bytes32"
        }
      ],
      "name": "cancelBid",
      "outputs": [],
      "stateMutability": "nonpayable",
      "type": "function"
    },
    {
      "inputs": [
        {
          "internalType": "uint256",
          "name": "_shares",
          "type": "uint256"
        },
        {
          "internalType": "uint256",
          "name": "_price",
          "type": "uint256"
        },
        {
          "internalType": "bytes32",
          "name": "_nonce",
          "type": "bytes32"
        }
      ],
      "name": "reveal",
      "outputs": [],
      "stateMutability": "payable",
      "type": "function"
    },
    {
      "inputs": [],
      "name": "ICOEnd",
      "outputs": [],
      "stateMutability": "nonpayable",
      "type": "function"
    },
    {
      "inputs": [],
      "name": "beneficiaryApproveAndWithdraw",
      "outputs": [],
      "stateMutability": "nonpayable",
      "type": "function"
    },
    {
      "inputs": [],
      "name": "getShares",
      "outputs": [],
      "stateMutability": "nonpayable",
      "type": "function"
    },
    {
      "inputs": [],
      "name": "withdraw",
      "outputs": [],
      "stateMutability": "nonpayable",
      "type": "function"
    }
  ],
  "bytecode": "0x60806040523480156200001157600080fd5b5060405162003245380380620032458339818101604052810190620000379190620001c8565b63625edc80600281905550636268170060038190555080600160006101000a81548173ffffffffffffffffffffffffffffffffffffffff021916908373ffffffffffffffffffffffffffffffffffffffff1602179055506000600b60006101000a81548160ff0219169083151502179055506000600a819055506000600b60016101000a81548160ff0219169083151502179055506127106000604051620000df9062000150565b620000ec92919062000352565b604051809103906000f08015801562000109573d6000803e3d6000fd5b506000806101000a81548173ffffffffffffffffffffffffffffffffffffffff021916908373ffffffffffffffffffffffffffffffffffffffff16021790555050620003a9565b6112c38062001f8283390190565b600080fd5b600073ffffffffffffffffffffffffffffffffffffffff82169050919050565b6000620001908262000163565b9050919050565b620001a28162000183565b8114620001ae57600080fd5b50565b600081519050620001c28162000197565b92915050565b600060208284031215620001e157620001e06200015e565b5b6000620001f184828501620001b1565b91505092915050565b6000819050919050565b6000819050919050565b6000819050919050565b600062000239620002336200022d84620001fa565b6200020e565b62000204565b9050919050565b6200024b8162000218565b82525050565b600082825260208201905092915050565b7f4e6576657250617920546f6b656e730000000000000000000000000000000000600082015250565b60006200029a600f8362000251565b9150620002a78262000262565b602082019050919050565b6000819050919050565b600060ff82169050919050565b6000620002ea620002e4620002de84620002b2565b6200020e565b620002bc565b9050919050565b620002fc81620002c9565b82525050565b7f4e50540000000000000000000000000000000000000000000000000000000000600082015250565b60006200033a60038362000251565b9150620003478262000302565b602082019050919050565b600060808201905062000369600083018562000240565b81810360208301526200037c816200028b565b90506200038d6040830184620002f1565b8181036060830152620003a0816200032b565b90509392505050565b611bc980620003b96000396000f3fe6080604052600436106100a75760003560e01c8063957bb1e011610064578063957bb1e014610177578063a6e66477146101a0578063d73fe0aa146101cb578063d7fd949e146101e2578063df7cec28146101f9578063e1c2781514610222576100a7565b80632cf8d127146100ac5780632d471f6c146100d757806338af3eed146100ee5780633ccfd60b1461011957806361d49ea8146101305780636f82488f1461014c575b600080fd5b3480156100b857600080fd5b506100c161025f565b6040516100ce91906113f6565b60405180910390f35b3480156100e357600080fd5b506100ec610265565b005b3480156100fa57600080fd5b50610103610723565b6040516101109190611452565b60405180910390f35b34801561012557600080fd5b5061012e610749565b005b61014a600480360381019061014591906114d4565b61083f565b005b34801561015857600080fd5b50610161610b50565b60405161016e91906113f6565b60405180910390f35b34801561018357600080fd5b5061019e60048036038101906101999190611527565b610b56565b005b3480156101ac57600080fd5b506101b5610bd2565b6040516101c291906113f6565b60405180910390f35b3480156101d757600080fd5b506101e0610bd8565b005b3480156101ee57600080fd5b506101f7610d63565b005b34801561020557600080fd5b50610220600480360381019061021b9190611527565b61100e565b005b34801561022e57600080fd5b5061024960048036038101906102449190611592565b61108a565b60405161025691906115ed565b60405180910390f35b60025481565b60035480421161027457600080fd5b600b60009054906101000a900460ff161561028e57600080fd5b6001600b60006101000a81548160ff02191690831515021790555060006102c7600060016007805490506102c29190611641565b6110b9565b60005b60078054905081101561071e5761271082106103d557600781815481106102f4576102f36116d5565b5b9060005260206000209060030201600101546007828154811061031a576103196116d5565b5b9060005260206000209060030201600201546103369190611704565b600660006007848154811061034e5761034d6116d5565b5b906000526020600020906003020160000160009054906101000a900473ffffffffffffffffffffffffffffffffffffffff1673ffffffffffffffffffffffffffffffffffffffff1673ffffffffffffffffffffffffffffffffffffffff16815260200190815260200160002060008282546103c9919061175e565b9250508190555061070b565b6000600782815481106103eb576103ea6116d5565b5b9060005260206000209060030201600101549050600060078381548110610415576104146116d5565b5b90600052602060002090600302016001015484610432919061175e565b9350612710841061057c576127108461044b91906117b4565b6007848154811061045f5761045e6116d5565b5b90600052602060002090600302016001015461047b91906117b4565b915060078381548110610491576104906116d5565b5b90600052602060002090600302016002015482600785815481106104b8576104b76116d5565b5b9060005260206000209060030201600101546104d491906117b4565b6104de9190611704565b90508060066000600786815481106104f9576104f86116d5565b5b906000526020600020906003020160000160009054906101000a900473ffffffffffffffffffffffffffffffffffffffff1673ffffffffffffffffffffffffffffffffffffffff1673ffffffffffffffffffffffffffffffffffffffff1681526020019081526020016000206000828254610574919061175e565b925050819055505b600783815481106105905761058f6116d5565b5b906000526020600020906003020160020154826105ad9190611704565b600a60008282546105be919061175e565b925050819055508160096000600786815481106105de576105dd6116d5565b5b906000526020600020906003020160000160009054906101000a900473ffffffffffffffffffffffffffffffffffffffff1673ffffffffffffffffffffffffffffffffffffffff1673ffffffffffffffffffffffffffffffffffffffff1681526020019081526020016000206000828254610659919061175e565b92505081905550600860078481548110610676576106756116d5565b5b906000526020600020906003020160000160009054906101000a900473ffffffffffffffffffffffffffffffffffffffff169080600181540180825580915050600190039060005260206000200160009091909190916101000a81548173ffffffffffffffffffffffffffffffffffffffff021916908373ffffffffffffffffffffffffffffffffffffffff16021790555050505b8080610716906117e8565b9150506102ca565b505050565b600160009054906101000a900473ffffffffffffffffffffffffffffffffffffffff1681565b600b60009054906101000a900460ff1661076257600080fd5b6000600660003373ffffffffffffffffffffffffffffffffffffffff1673ffffffffffffffffffffffffffffffffffffffff168152602001908152602001600020549050600081111561083c576000600660003373ffffffffffffffffffffffffffffffffffffffff1673ffffffffffffffffffffffffffffffffffffffff168152602001908152602001600020819055503373ffffffffffffffffffffffffffffffffffffffff166108fc829081150290604051600060405180830381858888f1935050505015801561083a573d6000803e3d6000fd5b505b50565b60025480421161084e57600080fd5b60035480421061085d57600080fd5b600085858560405160200161087493929190611872565b60405160208183030381529060405280519060200120905060011515600560003373ffffffffffffffffffffffffffffffffffffffff1673ffffffffffffffffffffffffffffffffffffffff168152602001908152602001600020600083815260200190815260200160002060009054906101000a900460ff161515146109505734600660003373ffffffffffffffffffffffffffffffffffffffff1673ffffffffffffffffffffffffffffffffffffffff1681526020019081526020016000206000828254610944919061175e565b92505081905550610b48565b6000858761095e9190611704565b9050803410610aef57600760405180606001604052803373ffffffffffffffffffffffffffffffffffffffff16815260200189815260200188815250908060018154018082558091505060019003906000526020600020906003020160009091909190915060008201518160000160006101000a81548173ffffffffffffffffffffffffffffffffffffffff021916908373ffffffffffffffffffffffffffffffffffffffff160217905550602082015181600101556040820151816002015550508034610a2c91906117b4565b600660003373ffffffffffffffffffffffffffffffffffffffff1673ffffffffffffffffffffffffffffffffffffffff1681526020019081526020016000206000828254610a7a919061175e565b925050819055506000600560003373ffffffffffffffffffffffffffffffffffffffff1673ffffffffffffffffffffffffffffffffffffffff168152602001908152602001600020600084815260200190815260200160002060006101000a81548160ff021916908315150217905550610b46565b34600660003373ffffffffffffffffffffffffffffffffffffffff1673ffffffffffffffffffffffffffffffffffffffff1681526020019081526020016000206000828254610b3e919061175e565b925050819055505b505b505050505050565b600a5481565b600254804210610b6557600080fd5b6001600560003373ffffffffffffffffffffffffffffffffffffffff1673ffffffffffffffffffffffffffffffffffffffff168152602001908152602001600020600084815260200190815260200160002060006101000a81548160ff0219169083151502179055505050565b60035481565b600b60009054906101000a900460ff16610bf157600080fd5b600b60019054906101000a900460ff16610c0a57600080fd5b6000600960003373ffffffffffffffffffffffffffffffffffffffff1673ffffffffffffffffffffffffffffffffffffffff1681526020019081526020016000205490506000811115610d60576000600960003373ffffffffffffffffffffffffffffffffffffffff1673ffffffffffffffffffffffffffffffffffffffff1681526020019081526020016000208190555060008054906101000a900473ffffffffffffffffffffffffffffffffffffffff1673ffffffffffffffffffffffffffffffffffffffff166323b872dd600160009054906101000a900473ffffffffffffffffffffffffffffffffffffffff1633846040518463ffffffff1660e01b8152600401610d1b9392919061191d565b6020604051808303816000875af1158015610d3a573d6000803e3d6000fd5b505050506040513d601f19601f82011682018060405250810190610d5e9190611980565b505b50565b600b60009054906101000a900460ff16610d7c57600080fd5b600160009054906101000a900473ffffffffffffffffffffffffffffffffffffffff1673ffffffffffffffffffffffffffffffffffffffff163373ffffffffffffffffffffffffffffffffffffffff1614610dd657600080fd5b600b60019054906101000a900460ff1615610df057600080fd5b6000600a5490506000811115610e72576000600a81905550600160009054906101000a900473ffffffffffffffffffffffffffffffffffffffff1673ffffffffffffffffffffffffffffffffffffffff166108fc829081150290604051600060405180830381858888f19350505050158015610e70573d6000803e3d6000fd5b505b60005b600880549050811015610fef5760008054906101000a900473ffffffffffffffffffffffffffffffffffffffff1673ffffffffffffffffffffffffffffffffffffffff1663095ea7b360088381548110610ed257610ed16116d5565b5b9060005260206000200160009054906101000a900473ffffffffffffffffffffffffffffffffffffffff166009600060088681548110610f1557610f146116d5565b5b9060005260206000200160009054906101000a900473ffffffffffffffffffffffffffffffffffffffff1673ffffffffffffffffffffffffffffffffffffffff1673ffffffffffffffffffffffffffffffffffffffff168152602001908152602001600020546040518363ffffffff1660e01b8152600401610f989291906119ad565b6020604051808303816000875af1158015610fb7573d6000803e3d6000fd5b505050506040513d601f19601f82011682018060405250810190610fdb9190611980565b508080610fe7906117e8565b915050610e75565b506001600b60016101000a81548160ff02191690831515021790555050565b60025480421061101d57600080fd5b6000600560003373ffffffffffffffffffffffffffffffffffffffff1673ffffffffffffffffffffffffffffffffffffffff168152602001908152602001600020600084815260200190815260200160002060006101000a81548160ff0219169083151502179055505050565b60056020528160005260406000206020528060005260406000206000915091509054906101000a900460ff1681565b600082905060008290508082036110d15750506113d9565b60006007600286866110e39190611641565b6110ed9190611a05565b866110f89190611a6f565b81548110611109576111086116d5565b5b90600052602060002090600302016002015490505b8183136113af575b806007848154811061113b5761113a6116d5565b5b906000526020600020906003020160020154111561116657828061115e90611b03565b935050611126565b5b6007828154811061117b5761117a6116d5565b5b9060005260206000209060030201600201548110156111a757818061119f90611b4b565b925050611167565b8183136113aa576000600784815481106111c4576111c36116d5565b5b90600052602060002090600302016040518060600160405290816000820160009054906101000a900473ffffffffffffffffffffffffffffffffffffffff1673ffffffffffffffffffffffffffffffffffffffff1673ffffffffffffffffffffffffffffffffffffffff1681526020016001820154815260200160028201548152505090506007838154811061125d5761125c6116d5565b5b90600052602060002090600302016007858154811061127f5761127e6116d5565b5b90600052602060002090600302016000820160009054906101000a900473ffffffffffffffffffffffffffffffffffffffff168160000160006101000a81548173ffffffffffffffffffffffffffffffffffffffff021916908373ffffffffffffffffffffffffffffffffffffffff160217905550600182015481600101556002820154816002015590505080600784815481106113205761131f6116d5565b5b906000526020600020906003020160008201518160000160006101000a81548173ffffffffffffffffffffffffffffffffffffffff021916908373ffffffffffffffffffffffffffffffffffffffff1602179055506020820151816001015560408201518160020155905050838061139790611b03565b94505082806113a590611b4b565b935050505b61111e565b818512156113c2576113c185836110b9565b5b838312156113d5576113d483856110b9565b5b5050505b5050565b6000819050919050565b6113f0816113dd565b82525050565b600060208201905061140b60008301846113e7565b92915050565b600073ffffffffffffffffffffffffffffffffffffffff82169050919050565b600061143c82611411565b9050919050565b61144c81611431565b82525050565b60006020820190506114676000830184611443565b92915050565b600080fd5b61147b816113dd565b811461148657600080fd5b50565b60008135905061149881611472565b92915050565b6000819050919050565b6114b18161149e565b81146114bc57600080fd5b50565b6000813590506114ce816114a8565b92915050565b6000806000606084860312156114ed576114ec61146d565b5b60006114fb86828701611489565b935050602061150c86828701611489565b925050604061151d868287016114bf565b9150509250925092565b60006020828403121561153d5761153c61146d565b5b600061154b848285016114bf565b91505092915050565b600061155f82611411565b9050919050565b61156f81611554565b811461157a57600080fd5b50565b60008135905061158c81611566565b92915050565b600080604083850312156115a9576115a861146d565b5b60006115b78582860161157d565b92505060206115c8858286016114bf565b9150509250929050565b60008115159050919050565b6115e7816115d2565b82525050565b600060208201905061160260008301846115de565b92915050565b6000819050919050565b7f4e487b7100000000000000000000000000000000000000000000000000000000600052601160045260246000fd5b600061164c82611608565b915061165783611608565b9250827f80000000000000000000000000000000000000000000000000000000000000000182126000841215161561169257611691611612565b5b827f7fffffffffffffffffffffffffffffffffffffffffffffffffffffffffffffff0182136000841216156116ca576116c9611612565b5b828203905092915050565b7f4e487b7100000000000000000000000000000000000000000000000000000000600052603260045260246000fd5b600061170f826113dd565b915061171a836113dd565b9250817fffffffffffffffffffffffffffffffffffffffffffffffffffffffffffffffff048311821515161561175357611752611612565b5b828202905092915050565b6000611769826113dd565b9150611774836113dd565b9250827fffffffffffffffffffffffffffffffffffffffffffffffffffffffffffffffff038211156117a9576117a8611612565b5b828201905092915050565b60006117bf826113dd565b91506117ca836113dd565b9250828210156117dd576117dc611612565b5b828203905092915050565b60006117f3826113dd565b91507fffffffffffffffffffffffffffffffffffffffffffffffffffffffffffffffff820361182557611824611612565b5b600182019050919050565b6000819050919050565b61184b611846826113dd565b611830565b82525050565b6000819050919050565b61186c6118678261149e565b611851565b82525050565b600061187e828661183a565b60208201915061188e828561183a565b60208201915061189e828461185b565b602082019150819050949350505050565b6000819050919050565b60006118d46118cf6118ca84611411565b6118af565b611411565b9050919050565b60006118e6826118b9565b9050919050565b60006118f8826118db565b9050919050565b611908816118ed565b82525050565b61191781611554565b82525050565b600060608201905061193260008301866118ff565b61193f602083018561190e565b61194c60408301846113e7565b949350505050565b61195d816115d2565b811461196857600080fd5b50565b60008151905061197a81611954565b92915050565b6000602082840312156119965761199561146d565b5b60006119a48482850161196b565b91505092915050565b60006040820190506119c2600083018561190e565b6119cf60208301846113e7565b9392505050565b7f4e487b7100000000000000000000000000000000000000000000000000000000600052601260045260246000fd5b6000611a1082611608565b9150611a1b83611608565b925082611a2b57611a2a6119d6565b5b600160000383147f800000000000000000000000000000000000000000000000000000000000000083141615611a6457611a63611612565b5b828205905092915050565b6000611a7a82611608565b9150611a8583611608565b9250817f7fffffffffffffffffffffffffffffffffffffffffffffffffffffffffffffff03831360008312151615611ac057611abf611612565b5b817f8000000000000000000000000000000000000000000000000000000000000000038312600083121615611af857611af7611612565b5b828201905092915050565b6000611b0e82611608565b91507f7fffffffffffffffffffffffffffffffffffffffffffffffffffffffffffffff8203611b4057611b3f611612565b5b600182019050919050565b6000611b5682611608565b91507f80000000000000000000000000000000000000000000000000000000000000008203611b8857611b87611612565b5b60018203905091905056fea26469706673582212209219d0983517bfbfd20a6f740e6395e3c989262000d7ee963d2e5a80da3532af64736f6c634300080d003360806040523480156200001157600080fd5b50604051620012c3380380620012c383398181016040528101906200003791906200039f565b83600160003373ffffffffffffffffffffffffffffffffffffffff1673ffffffffffffffffffffffffffffffffffffffff168152602001908152602001600020819055508360008190555082600390805190602001906200009a929190620000d9565b5081600460006101000a81548160ff021916908360ff1602179055508060059080519060200190620000ce929190620000d9565b5050505050620004b3565b828054620000e7906200047e565b90600052602060002090601f0160209004810192826200010b576000855562000157565b82601f106200012657805160ff191683800117855562000157565b8280016001018555821562000157579182015b828111156200015657825182559160200191906001019062000139565b5b5090506200016691906200016a565b5090565b5b80821115620001855760008160009055506001016200016b565b5090565b6000604051905090565b600080fd5b600080fd5b6000819050919050565b620001b2816200019d565b8114620001be57600080fd5b50565b600081519050620001d281620001a7565b92915050565b600080fd5b600080fd5b6000601f19601f8301169050919050565b7f4e487b7100000000000000000000000000000000000000000000000000000000600052604160045260246000fd5b6200022d82620001e2565b810181811067ffffffffffffffff821117156200024f576200024e620001f3565b5b80604052505050565b60006200026462000189565b905062000272828262000222565b919050565b600067ffffffffffffffff821115620002955762000294620001f3565b5b620002a082620001e2565b9050602081019050919050565b60005b83811015620002cd578082015181840152602081019050620002b0565b83811115620002dd576000848401525b50505050565b6000620002fa620002f48462000277565b62000258565b905082815260208101848484011115620003195762000318620001dd565b5b62000326848285620002ad565b509392505050565b600082601f830112620003465762000345620001d8565b5b815162000358848260208601620002e3565b91505092915050565b600060ff82169050919050565b620003798162000361565b81146200038557600080fd5b50565b60008151905062000399816200036e565b92915050565b60008060008060808587031215620003bc57620003bb62000193565b5b6000620003cc87828801620001c1565b945050602085015167ffffffffffffffff811115620003f057620003ef62000198565b5b620003fe878288016200032e565b9350506040620004118782880162000388565b925050606085015167ffffffffffffffff81111562000435576200043462000198565b5b62000443878288016200032e565b91505092959194509250565b7f4e487b7100000000000000000000000000000000000000000000000000000000600052602260045260246000fd5b600060028204905060018216806200049757607f821691505b602082108103620004ad57620004ac6200044f565b5b50919050565b610e0080620004c36000396000f3fe608060405234801561001057600080fd5b50600436106100a95760003560e01c8063313ce56711610071578063313ce5671461017a5780635c6581651461019857806370a08231146101c857806395d89b41146101f8578063a9059cbb14610216578063dd62ed3e14610246576100a9565b806306fdde03146100ae578063095ea7b3146100cc57806318160ddd146100fc57806323b872dd1461011a57806327e235e31461014a575b600080fd5b6100b6610276565b6040516100c39190610a5f565b60405180910390f35b6100e660048036038101906100e19190610b1a565b610304565b6040516100f39190610b75565b60405180910390f35b6101046103f6565b6040516101119190610b9f565b60405180910390f35b610134600480360381019061012f9190610bba565b6103fc565b6040516101419190610b75565b60405180910390f35b610164600480360381019061015f9190610c0d565b6106af565b6040516101719190610b9f565b60405180910390f35b6101826106c7565b60405161018f9190610c56565b60405180910390f35b6101b260048036038101906101ad9190610c71565b6106da565b6040516101bf9190610b9f565b60405180910390f35b6101e260048036038101906101dd9190610c0d565b6106ff565b6040516101ef9190610b9f565b60405180910390f35b610200610748565b60405161020d9190610a5f565b60405180910390f35b610230600480360381019061022b9190610b1a565b6107d6565b60405161023d9190610b75565b60405180910390f35b610260600480360381019061025b9190610c71565b61093f565b60405161026d9190610b9f565b60405180910390f35b6003805461028390610ce0565b80601f01602080910402602001604051908101604052809291908181526020018280546102af90610ce0565b80156102fc5780601f106102d1576101008083540402835291602001916102fc565b820191906000526020600020905b8154815290600101906020018083116102df57829003601f168201915b505050505081565b600081600260003373ffffffffffffffffffffffffffffffffffffffff1673ffffffffffffffffffffffffffffffffffffffff16815260200190815260200160002060008573ffffffffffffffffffffffffffffffffffffffff1673ffffffffffffffffffffffffffffffffffffffff168152602001908152602001600020819055508273ffffffffffffffffffffffffffffffffffffffff163373ffffffffffffffffffffffffffffffffffffffff167f8c5be1e5ebec7d5bd14f71427d1e84f3dd0314c0f7b2291e5b200ac8c7c3b925846040516103e49190610b9f565b60405180910390a36001905092915050565b60005481565b600080600260008673ffffffffffffffffffffffffffffffffffffffff1673ffffffffffffffffffffffffffffffffffffffff16815260200190815260200160002060003373ffffffffffffffffffffffffffffffffffffffff1673ffffffffffffffffffffffffffffffffffffffff16815260200190815260200160002054905082600160008773ffffffffffffffffffffffffffffffffffffffff1673ffffffffffffffffffffffffffffffffffffffff16815260200190815260200160002054101580156104cd5750828110155b6104d657600080fd5b82600160008673ffffffffffffffffffffffffffffffffffffffff1673ffffffffffffffffffffffffffffffffffffffff16815260200190815260200160002060008282546105259190610d40565b9250508190555082600160008773ffffffffffffffffffffffffffffffffffffffff1673ffffffffffffffffffffffffffffffffffffffff168152602001908152602001600020600082825461057b9190610d96565b925050819055507fffffffffffffffffffffffffffffffffffffffffffffffffffffffffffffffff81101561063e5782600260008773ffffffffffffffffffffffffffffffffffffffff1673ffffffffffffffffffffffffffffffffffffffff16815260200190815260200160002060003373ffffffffffffffffffffffffffffffffffffffff1673ffffffffffffffffffffffffffffffffffffffff16815260200190815260200160002060008282546106369190610d96565b925050819055505b8373ffffffffffffffffffffffffffffffffffffffff168573ffffffffffffffffffffffffffffffffffffffff167fddf252ad1be2c89b69c2b068fc378daa952ba7f163c4a11628f55a4df523b3ef8560405161069b9190610b9f565b60405180910390a360019150509392505050565b60016020528060005260406000206000915090505481565b600460009054906101000a900460ff1681565b6002602052816000526040600020602052806000526040600020600091509150505481565b6000600160008373ffffffffffffffffffffffffffffffffffffffff1673ffffffffffffffffffffffffffffffffffffffff168152602001908152602001600020549050919050565b6005805461075590610ce0565b80601f016020809104026020016040519081016040528092919081815260200182805461078190610ce0565b80156107ce5780601f106107a3576101008083540402835291602001916107ce565b820191906000526020600020905b8154815290600101906020018083116107b157829003601f168201915b505050505081565b600081600160003373ffffffffffffffffffffffffffffffffffffffff1673ffffffffffffffffffffffffffffffffffffffff16815260200190815260200160002054101561082457600080fd5b81600160003373ffffffffffffffffffffffffffffffffffffffff1673ffffffffffffffffffffffffffffffffffffffff16815260200190815260200160002060008282546108739190610d96565b9250508190555081600160008573ffffffffffffffffffffffffffffffffffffffff1673ffffffffffffffffffffffffffffffffffffffff16815260200190815260200160002060008282546108c99190610d40565b925050819055508273ffffffffffffffffffffffffffffffffffffffff163373ffffffffffffffffffffffffffffffffffffffff167fddf252ad1be2c89b69c2b068fc378daa952ba7f163c4a11628f55a4df523b3ef8460405161092d9190610b9f565b60405180910390a36001905092915050565b6000600260008473ffffffffffffffffffffffffffffffffffffffff1673ffffffffffffffffffffffffffffffffffffffff16815260200190815260200160002060008373ffffffffffffffffffffffffffffffffffffffff1673ffffffffffffffffffffffffffffffffffffffff16815260200190815260200160002054905092915050565b600081519050919050565b600082825260208201905092915050565b60005b83811015610a005780820151818401526020810190506109e5565b83811115610a0f576000848401525b50505050565b6000601f19601f8301169050919050565b6000610a31826109c6565b610a3b81856109d1565b9350610a4b8185602086016109e2565b610a5481610a15565b840191505092915050565b60006020820190508181036000830152610a798184610a26565b905092915050565b600080fd5b600073ffffffffffffffffffffffffffffffffffffffff82169050919050565b6000610ab182610a86565b9050919050565b610ac181610aa6565b8114610acc57600080fd5b50565b600081359050610ade81610ab8565b92915050565b6000819050919050565b610af781610ae4565b8114610b0257600080fd5b50565b600081359050610b1481610aee565b92915050565b60008060408385031215610b3157610b30610a81565b5b6000610b3f85828601610acf565b9250506020610b5085828601610b05565b9150509250929050565b60008115159050919050565b610b6f81610b5a565b82525050565b6000602082019050610b8a6000830184610b66565b92915050565b610b9981610ae4565b82525050565b6000602082019050610bb46000830184610b90565b92915050565b600080600060608486031215610bd357610bd2610a81565b5b6000610be186828701610acf565b9350506020610bf286828701610acf565b9250506040610c0386828701610b05565b9150509250925092565b600060208284031215610c2357610c22610a81565b5b6000610c3184828501610acf565b91505092915050565b600060ff82169050919050565b610c5081610c3a565b82525050565b6000602082019050610c6b6000830184610c47565b92915050565b60008060408385031215610c8857610c87610a81565b5b6000610c9685828601610acf565b9250506020610ca785828601610acf565b9150509250929050565b7f4e487b7100000000000000000000000000000000000000000000000000000000600052602260045260246000fd5b60006002820490506001821680610cf857607f821691505b602082108103610d0b57610d0a610cb1565b5b50919050565b7f4e487b7100000000000000000000000000000000000000000000000000000000600052601160045260246000fd5b6000610d4b82610ae4565b9150610d5683610ae4565b9250827fffffffffffffffffffffffffffffffffffffffffffffffffffffffffffffffff03821115610d8b57610d8a610d11565b5b828201905092915050565b6000610da182610ae4565b9150610dac83610ae4565b925082821015610dbf57610dbe610d11565b5b82820390509291505056fea2646970667358221220ea66420bced7337c568cefc47e09357a6af9545f3fa1c4463b8745cb81977fde64736f6c634300080d0033",
  "immutableReferences": {},
  "source": "pragma solidity >= 0.8.0;\nimport \"./ERC20-NeverPayToken.sol\";\n\ncontract NeverPayICO {\n\n    // Token => 10000 shares\n    ERC20NeverPayToken token;\n\n    // address of NeverPay (beneficiary of ICO).\n    address payable public beneficiary;\n\n    // DDL of round 1.\n    uint public bidEnd;\n\n    // DDL of round 2.\n    uint public revealEnd;\n\n    // The hash value of blind bid in first round => H(shares, price, nonce).\n    bytes32 blindedBid;\n\n    // Hashset to record the first round bids => (addr, blindedBid[]).\n    mapping(address => mapping(bytes32 => bool)) public bids;\n\n    // Hashset to record the refund to be paid => (addr, ETH).\n    mapping(address => uint) refunds;\n\n    // Struct type to store every valid bid in round 2.\n    struct validBid {\n        address addr;\n        uint shares;\n        uint price;\n    }\n    \n    // Array to store all valid bids.\n    validBid[] validBids;\n\n    // Array to record the investor (has successful bid)\n    address[] investors;\n\n    // Hashset to record the share belong to each investors => (investor_address, shares).\n    mapping(address => uint) shares; \n\n    // Total number of ETH collected during the ICO (belong to beneficial at last);\n    uint public totalICOETH;\n\n    // Flag to check whether the whole ICO part is end and bidder can start to withdraw the money\n    // if their potentially successful bid is failed.\n    bool ICOEndFlag;\n\n    // Flag to check whether beneficiary has already collect his ETH\n    // and approve the shares collection.\n    bool BeneficiaryApproveFlag;\n\n    modifier onlyBefore(uint _time) { require(block.timestamp < _time); _; }\n    modifier onlyAfter(uint _time) { require(block.timestamp > _time); _; }\n    modifier onlyBeforeICOEnd() {require(!ICOEndFlag); _; }\n    modifier onlyAfterICOEnd() {require(ICOEndFlag); _; }\n    modifier onlyBeneficiary() {require(msg.sender == beneficiary); _;}\n    modifier alreadyApprove() {require(BeneficiaryApproveFlag); _;}\n\n    // Initial DDL of round1 and round2,\n    // initial addr of beneficiary.\n    constructor(address payable _beneficiary) {\n        bidEnd = 1650384000;\n        revealEnd = 1650988800;\n        beneficiary = _beneficiary;\n        ICOEndFlag = false;\n        totalICOETH = 0;\n        BeneficiaryApproveFlag = false;\n        token = new ERC20NeverPayToken(10000, \"NeverPay Tokens\", 0, \"NPT\");\n    }\n\n    /*\n    [Round1] Make a bid\n    _bindedBid: hash value of bid message send by bidder => H(shares, price, nonce)   \n    */\n    function bid(bytes32 _bindedBid)\n        public \n        onlyBefore(bidEnd)\n    {\n        bids[msg.sender][_bindedBid] = true;\n    }\n\n    /*\n    [Round1] Withdraw a bid\n    _bindedBid: hash value of bid message send by bidder => H(shares, price, nonce) \n    */\n    function cancelBid(bytes32 _bindedBid)\n        public\n        onlyBefore(bidEnd)\n    {\n        // Make the corresponding bid unavailable to reveal.\n        bids[msg.sender][_bindedBid] = false;\n    }\n    \n    /*\n    [Round2] Reveal bid\n    _shares: shares contain in bid in round1\n    _price: price contain in bid in round1\n    _nonce: nonce used to calculate hash with price and shares of bid in round1\n    */\n    function reveal(uint _shares, uint _price, bytes32 _nonce)\n        payable\n        public\n        onlyAfter(bidEnd)\n        onlyBefore(revealEnd)\n    {\n        // Calculating the hash of shares, price and nonce in round2\n        bytes32 hashedReveal = keccak256(abi.encodePacked(_shares, _price, _nonce));\n        \n        // Check whether these three parameters are matched with certain bid in round1\n        if (bids[msg.sender][hashedReveal] != true) {\n            // Bid not found || already been revealed\n            // Refund the ETH\n            refunds[msg.sender] += msg.value;\n        } else {\n            // calculate the full price of this bid.\n            uint totalPrice = _shares * _price;\n            // Check whether the payment is enough for this bid.\n            if (msg.value >= totalPrice) {\n                // Enough\n                // Mark this bid as valid\n                validBids.push(validBid({\n                    addr: msg.sender,\n                    shares: _shares,\n                    price: _price\n                }));\n                // Refund the extra ETH\n                refunds[msg.sender] += (msg.value - totalPrice);\n                // Make this bid unabailable to reveal\n                bids[msg.sender][hashedReveal] = false;\n            } else {\n                // Not enough\n                // Refund all ETH\n                refunds[msg.sender] += msg.value;\n            }\n        }\n    }\n\n    function ICOEnd()\n        public\n        onlyAfter(revealEnd)\n        onlyBeforeICOEnd()\n    {\n        ICOEndFlag = true;\n        uint totalShare = 0;\n\n        // Sort validBids by quick sort by decending order;\n        quickSort(0, int(validBids.length) - 1);\n\n        // Loop through validBids\n        for(uint i = 0; i < validBids.length; i++) {\n            // If already over 10000 shares.\n            // Refund full price of this bid.\n            if (totalShare >= 10000) {\n                refunds[validBids[i].addr] += validBids[i].price * validBids[i].shares;\n                continue;\n            }\n\n            uint successfulShares = validBids[i].shares;\n            uint refundPrice = 0;\n            // If current bid make total share over 10000\n            // Calculate partial share and partial refund amount.\n            // Update refund list.\n            totalShare += validBids[i].shares;\n            if (totalShare >= 10000) {\n                // Calculate the valid shares.\n                successfulShares = validBids[i].shares - (totalShare - 10000);\n                // Calculate the refund price caused by invslid shares (shares over 10000).\n                refundPrice = (validBids[i].shares - successfulShares) * validBids[i].price;\n                // Update the refunds records.\n                refunds[validBids[i].addr] += refundPrice;\n            }\n\n            // Calculate current total amount of ETH from all shares\n            totalICOETH += successfulShares * validBids[i].price;\n\n            // Update shares array\n            shares[validBids[i].addr] += successfulShares;\n\n            // Mark the address as successful bid's owner\n            // which is a investor\n            investors.push(validBids[i].addr);\n        } \n    }\n\n    // Beneficiary use this function to approve the token transaction (beneficiary => investors)\n    // Beneficiary use this function to get ETH withdraw collected during ICO\n    function beneficiaryApproveAndWithdraw()\n        public\n        onlyAfterICOEnd()\n        onlyBeneficiary()\n    {\n        require(!BeneficiaryApproveFlag);\n        uint amount = totalICOETH;\n        if (amount > 0) {\n            totalICOETH = 0;\n            // Transfer ETH to beneficiary.\n            beneficiary.transfer(amount);\n        }\n        // Approved every transaction to investors.\n        for(uint i = 0; i < investors.length; i++) {\n            token.approve(investors[i], shares[investors[i]]);\n        }\n        BeneficiaryApproveFlag = true;\n    }\n\n    // Investor use this function to get their shares.\n    function getShares() \n        public\n        onlyAfterICOEnd()\n        alreadyApprove()\n    {\n        uint amount = shares[msg.sender];\n        if (amount > 0) {\n            shares[msg.sender] = 0;\n            // Shares transfer.\n            token.transferFrom(beneficiary, msg.sender, amount);\n        }\n    }\n\n    // Failed investors (unsuccessful bid and invalid bid) use this function to \n    // withdraw their ETH.\n    function withdraw()\n        public\n        onlyAfterICOEnd()\n    {\n        uint amount = refunds[msg.sender];\n        if (amount > 0) {\n            refunds[msg.sender] = 0;\n            payable(msg.sender).transfer(amount);\n        }\n    }\n\n    function quickSort(int left, int right)\n        internal\n    {\n        int i = left;\n        int j = right;\n        if (i == j) return;\n        uint pivot = validBids[uint(left + (right - left) / 2)].price;\n        while (i <= j) {\n            while (validBids[uint(i)].price > pivot) i++;\n            while (pivot < validBids[uint(j)].price) j--;\n            if (i <= j) {\n                validBid memory temp = validBids[uint(i)];\n                validBids[uint(i)] = validBids[uint(j)];\n                validBids[uint(j)] = temp;\n                // (validBids[uint(i)], validBids[uint(j)]) = (validBids[uint(j)], validBids[uint(i)]);\n                i++;\n                j--;\n            }\n        }\n        if (left < j) quickSort(left, j);\n        if (i < right) quickSort(i, right);\n    }\n}",
  "sourcePath": "/Users/chz/Desktop/COMP/COMP6451/Ass2/truffle_workstation/contracts/NeverPayICO.sol",
  "compiler": {
    "name": "solc",
    "version": "0.8.13+commit.abaa5c0e.Emscripten.clang"
  },
  "schemaVersion": "3.4.6",
  "updatedAt": "2022-03-28T03:29:03.473Z",
  "devdoc": {
    "kind": "dev",
    "methods": {},
    "version": 1
  },
  "userdoc": {
    "kind": "user",
    "methods": {},
    "version": 1
  }
}